:100000000C9421040C9449040C9449040C94490464
:100010000C9449040C9449040C9449040C9449042C
:100020000C9449040C9449040C94630D0C94D50D64
:100030000C9449040C9449040C9449040C9449040C
:100040000C9449040C9449040C9449040C944904FC
:100050000C9449040C9449040C9449040C944D10DC
:100060000C9449040C9449040C9449040C944904DC
:100070000C9449040C9449040C9449040C944904CC
:100080000C94E10B0C9449040C9449040C9449041D
:100090000C9449040C9449040C9449040C944904AC
:1000A0000C9449040C9449040C9449040C1F1E0C34
:1000B0000C13120C1E182A45EA180E1C183452C5CF
:1000C00041C23C0012365AC541C23C0000FE020249
:1000D000724A42E22202860CF8F040C08080C040A2
:1000E000C0C08080C0C0404040C0C0808080C04050
:1000F000C080C04040C0C080C0C0404040C0808080
:100100000000000000FF000000F0F0717171787CC9
:10011000FFF0C0C08787000000FF870100000000DB
:100120000000000187FF000000F1F8FCFCFE8701E1
:10013000000000000000000187FEF800007FF0E0F2
:10014000F0FF7F00000000000F1D18181818181885
:100150001C1F0F060C1C1818181C1C1E0F0F1C1837
:100160001C1F1F0F000103060C1C1818181C1C0E66
:100170000F07010000000000000000000000000068
:10018000000000000000000000000000000000006F
:10019000000000000000000000000000000000005F
:1001A0000000000000000000000000000E0A0E0029
:1001B0000A000A00D5F08D14A1C881CFD9F1AF2073
:1001C000000000000000000000000000000000002F
:1001D00000000000000000001D008105C0000000BC
:1001E0000000000000000901410D40000000000077
:1001F0000000000009888925400000000001F81F68
:10020000800009545515400FD20400000000020080
:1002100009515555401042040000000001000948F2
:100220008925C03051040003FC000082000000005A
:10023000004881087FE0047FE00200000000000425
:100240008008000004020004000000000003001009
:100250000000080200080000000000030020000069
:100260001004003000000000000480400000200462
:1002700000C000000000001801800000C00803005A
:10028000000000000000000000000000000000006E
:10029000000000000000000000000000000000005E
:1002A000000000000000000000000000000000004E
:1002B000000000000000000000000000000000003E
:1002C0000000000000000000000000080B00020217
:1002D00002010009040000010202000005240010D0
:1002E000010524010101042402060524060001077A
:1002F00005810310004009040100020A0000000704
:1003000005020240000007058302400000040309C3
:100310000412010002EF0201404123368000010176
:1003200002030141726475696E6F204C4C430041B9
:10033000726475626F790001020408102040800029
:10034000000000003E5B4F5B3E3E6B4F6B3E1C3E31
:100350007C3E1C183C7E3C181C577D571C1C5E7F45
:100360005E1C00183C1800FFE7C3E7FF00182418C4
:1003700000FFE7DBE7FF30483A060E2629792926F9
:10038000407F050507407F05253F5A3CE73C5A7FE3
:100390003E1C1C08081C1C3E7F14227F22145F5F39
:1003A000005F5F06097F017F006689956A60606073
:1003B000606094A2FFA29408047E040810207E20AE
:1003C0001008082A1C08081C2A08081E1010101003
:1003D0000C1E0C1E0C30383E3830060E3E0E060049
:1003E0000000000000005F00000007000700147F0D
:1003F000147F14242A7F2A12231308646236495674
:1004000020500008070300001C2241000041221C6C
:10041000002A1C7F1C2A08083E0808008070300053
:100420000808080808000060600020100804023E68
:100430005149453E00427F400072494949462141A9
:10044000494D331814127F1027454545393C4A4918
:100450004931412111090736494949364649492957
:100460001E00001400000040340000000814224167
:100470001414141414004122140802015909063EF0
:10048000415D594E7C1211127C7F494949363E41EB
:100490004141227F4141413E7F494949417F09090C
:1004A00009013E414151737F0808087F00417F41A7
:1004B000002040413F017F081422417F40404040DE
:1004C0007F021C027F7F0408107F3E4141413E7F36
:1004D000090909063E4151215E7F0919294626492D
:1004E00049493203017F01033F4040403F1F204004
:1004F000201F3F4038403F6314081463030478040E
:10050000036159494D43007F4141410204081020D5
:10051000004141417F04020102044040404040004C
:100520000307080020545478407F28444438384456
:10053000444428384444287F385454541800087ED2
:10054000090218A4A49C787F0804047800447D4024
:10055000002040403D007F1028440000417F4000C3
:100560007C047804787C080404783844444438FCDB
:100570001824241818242418FC7C0804040848545F
:1005800054542404043F44243C4040207C1C20401C
:10059000201C3C4030403C44281028444C90909013
:1005A0007C4464544C44000836410000007700004D
:1005B000004136080002010204023C2623263C1EAC
:1005C000A1A161123A4040207A385454555921551E
:1005D000557941215454784121555478402054553F
:1005E00079400C1E5272123955555559395454548C
:1005F0005939555454580000457C410002457D420C
:100600000001457C40F0292429F0F0282528F07CC1
:10061000545545002054547C547C0A097F49324982
:100620004949323248484832324A4848303A4141D2
:10063000217A3A42402078009DA0A07D394444446C
:10064000393D4040403D3C24FF2424487E494366D8
:100650002B2FFC2F2BFF0929F620C0887E090320B1
:10066000545479410000447D413048484A32384072
:1006700040227A007A0A0A727D0D19317D262929D5
:100680002F28262929292630484D402038080808D7
:100690000808080808382F10C8ACBA2F102834FAF8
:1006A00000007B000008142A142222142A14089542
:1006B00000220095AA005500AAAA55AA55AA000032
:1006C00000FF00101010FF00141414FF001010FFA2
:1006D00000FF1010F010F0141414FC001414F700B4
:1006E000FF0000FF00FF1414F404FC141417101F83
:1006F00010101F101F1414141F00101010F0000011
:1007000000001F101010101F10101010F01000002B
:1007100000FF101010101010101010FF100000003B
:10072000FF140000FF00FF00001F10170000FC0472
:10073000F414141710171414F404F40000FF00F755
:1007400014141414141414F700F7141414171410B8
:10075000101F101F141414F4141010F010F00000E7
:100760001F101F0000001F14000000FC140000F008
:1007700010F01010FF10FF141414FF141010101FAD
:1007800000000000F010FFFFFFFFFFF0F0F0F0F0BE
:10079000FFFFFF0000000000FFFF0F0F0F0F0F38DB
:1007A000444438447C2A2A3E147E02020606027E15
:1007B000027E0263554941633844443C04407E2034
:1007C0001E2006027E020299A5E7A5991C2A492A45
:1007D0001C4C7201724C304A4D4D303048784830D4
:1007E000BC625A463D3E494949007E0101017E2ACC
:1007F0002A2A2A2A44445F444440514A44404044FF
:100800004A51400000FF0103E080FF000008086B30
:100810006B083612362436060F090F06000018182A
:100820000000001010003040FF0101001F01011EF8
:1008300000191D1712003C3C3C3C00000000000069
:10084000931811241FBECFEFDAE0DEBFCDBF11E059
:10085000A0E0B1E0EAE5F5E302C005900D92A4390D
:10086000B107D9F726E0A4E9B1E001C01D92A53C8B
:10087000B207E1F714E0C1E2D4E004C02197FE0121
:100880000E94991AC032D107C9F70E94FC160C9435
:10089000AB1A0C9400002F923F924F925F926F928E
:1008A0007F928F929F92AF92BF92CF92DF92EF9200
:1008B000FF920F931F93CF93DF93CDB7DEB72F97A0
:1008C0000FB6F894DEBF0FBECDBF0E941F1310926B
:1008D0004F0610924E0610924D0610924C068091D3
:1008E0004606809347060E946F14809346068091C7
:1008F0000C0290910D0224E630E0B9010E94711AB9
:10090000F62EE62E80910A0290910B02B9010E9408
:10091000711A8B01D0900902D11030C028E0260F47
:100920002B83322E3F0C85E3282E2F18409107028F
:1009300050910802598748870E946F145801BB24C0
:1009400083FF41C053E35E15F0F16B81862F90E089
:100950008F0D911D803891051CF0D11031C033C02E
:100960008B81E81610F0D1102EC0809106028823EA
:1009700049F080910502811126C004C0362E3F182F
:100980006B83D1CF8091030290910402880F991F4D
:1009900040910C0250910D029C01240F351F213013
:1009A000324328F020E032E3C901841B950B840F09
:1009B000951F90930D0280930C0291E0998338C0AB
:1009C0003B81E31690F20E946F1485FFEBC4C09048
:1009D0000A02D0900B02C114D10409F4E3C480913F
:1009E00005028111DFC4E0900C02F0900D02E114C9
:1009F000F10409F0D7C4C50104969595879595959E
:100A000087950E940616882309F4CCC480910302BE
:100A100090910402C816D90618F07601E81AF90A6E
:100A2000F0920B02E0920A0281E08093090219829F
:100A300080910C0290910D02892B19F4ECEBF0E0FF
:100A400002C0E4ECF0E0B0E8AB16B10478F528E7BA
:100A5000A216B10418F020E8201B01C028E0309154
:100A6000090281E0382709F037968501035D1A4FA6
:100A700060E02617D9F08491882379F040E1849FC3
:100A8000C0011124D8014C91842B8C93A8014058AB
:100A90005F4FDA018C91892B8C93332311F03197BE
:100AA00001C031966F5F0F5F1F4FE3CF8091470604
:100AB00083FD04C08091460683FDAFC413EBE12E95
:100AC00011E0F12EE22DF0E0FB87EA8704E6602ECC
:100AD000712C95012E5F3F4F3D872C878EE1482E6C
:100AE000512C9DE2C92E96E0D92E432D50E05F8710
:100AF0004E87D70114968C911497882309F477C1F7
:100B00009C911296ED91FC911397E90FF11D97FDC1
:100B1000FA95FD83EC831396FC93EE93129711964E
:100B20003C9180FD09C0CF01B3010E94851A05E008
:100B300024E04CEA50E009C08C819D81B3010E9401
:100B4000851A05E024E040EB50E0832F330F990B2A
:100B50000E942A128C819D81B3010E94851ACB01CB
:100B600043E06A857B850E94B015882309F45CC048
:100B7000D70111968C9142E06E857F85082E000C7E
:100B8000990B0E94B015882309F44EC0B981BB238C
:100B900009F44AC0809171008D7F8093710010929A
:100BA0001002D0920F02C0920E02D092C106C092E3
:100BB000C0068BE092E890932E0680932D0682E388
:100BC00090E09093300680932F0620E133E030933D
:100BD000320620933106909334068093330680E0EA
:100BE00090E890933606809335060E94BC13F70177
:100BF000228133818091070290910802213AFFE01F
:100C00003F070CF43EC4C2969093080280930702FB
:100C1000D70114968C91823009F44BC40CF041C476
:100C2000D70114961C921982F70182819381803733
:100C3000F7E19F07F4F0D70114961C9214971196D0
:100C4000BC91BC83B7FF02C0BD5FBC83EC81E5955E
:100C5000E595EF5FEC838E2F0E940616813069F4D4
:100C600060E08C810E94C01561E08C810E94C015FB
:100C700004C0883893410CF4ADC0D70111968C9113
:100C800048E06C857D85082E000C990B0E94B015FC
:100C9000882309F49FC0EFEAFBE0F0930201E093A0
:100CA000010181E496E00E947F142CE130E03D8355
:100CB0002C8306E010E020E0A8016C817D8181E4B6
:100CC00096E00E948F140F5F1F4F0E33110599F7A6
:100CD0002C813D812F5F3F4F3D832C832038310590
:100CE00041F78CE190E00E946F1350924D064092C4
:100CF0004C0648E050E050934F0640934E0680E487
:100D000091E00E946D1350924D0640924C0684E192
:100D100090E090934F0680934E0660910702709189
:100D2000080280E090E04AE00E942C132091070224
:100D3000309108028091180290911902821793074E
:100D4000C0F487E092E00E9409128091070290911E
:100D50000802909319028093180250924D06409217
:100D60004C0650924F0640924E068AE491E00E9453
:100D70006D13809171008D7F80937100109210022D
:100D8000D0920F02C0920E02D092C106C092C0064D
:100D9000A6E0B1E8B0932E06A0932D0682E390E082
:100DA0009093300680932F0684EC90E8909332065F
:100DB00080933106709234066092330680E090E8AA
:100DC00090933606809335060E94BC1381E496E02A
:100DD0000E947F14F7018481833019F484E08483B6
:100DE0009EC0843009F09BC083E0848398C08091CA
:100DF000B1019091B201892B09F091C00E94601954
:100E000023E630E040E050E00E94021A6F5F6F304E
:100E100014F482E00FC08091AF019091B001833E45
:100E2000944038F064312CF483E0D70114968C930D
:100E300003C081E0F70184830E94601928E730E055
:100E400040E050E00E94021AD70111966C9311976E
:100E500013961C921E9212978090AD019090AE0155
:100E6000C4010396A0E0B0E0E3E08E1A9108A12C43
:100E7000B12C88169906AA06BB06F4F49C01AD01B4
:100E8000281939094A095B092C833D834E835F8306
:100E9000232B242B252B49F00E9460192C813D81A6
:100EA0004E815F810E94021A03C060E070E0CB01B6
:100EB000860E971EA81EB91ED7018C928090AB019A
:100EC0009090AC01C4010A96A0E0B0E0A12CB12C36
:100ED00088169906AA06BB06F4F49C01AD012819F0
:100EE00039094A095B092C833D834E835F83232B99
:100EF000242B252B49F00E9460192C813D814E81C5
:100F00005F810E94021A03C060E070E0CB01860E90
:100F1000971EA81EB91E9092B2018092B10135E0D1
:100F2000E30EF11C43E0E41642E0F40609F0E1CDE3
:100F30008091B1019091B20101979093B201809399
:100F4000B1018BE991E09D838C835BEAE52E51E052
:100F5000F52E662463946CEBC62E66E0D62E74E202
:100F6000B72EE5E0AE2EF7E09F2EAAE08A2EB6E07F
:100F70007B2EAC81BD8111961C91112309F472C0A6
:100F80001530A4F5123069F02CF4113079F422E018
:100F90002A830CC0133041F0143041F4F0E3FA839B
:100FA00005C0B8E1BA8302C0E8E2EA83AC81BD8142
:100FB0008C91BA816B2F70E0685F7F4F04E024E072
:100FC0004CEA51E0E4E08E02C00111240E942A1292
:100FD00080919A01682D0E94651A911107C05524CD
:100FE0005394510EAC81BD8111965C92EC81FD81D0
:100FF0008181853051F460E080810E94C015AC8110
:10100000BD8111967C92B4E317C0863041F08730E1
:10101000B9F4AC81BD8111961C92BAE00DC08091EB
:101020009A016A2D0E94651A911108C0EC81FD8118
:101030009182F8E2FA8304C0BA8302C0E8E2EA834C
:10104000AC81BD818C91BA816B2F70E0E4E08E029F
:10105000C001112408E028E044EB50E002970E9410
:101060002A121CC08091B4068823C1F0909100011F
:10107000911114C0AC81BD8111966C921197815071
:101080008C93E4EBF6E08191DF0112978C93CE16FE
:10109000DF06C9F71092BB06B0920001EC81FD811A
:1010A0003296FD83EC83EE16FF0609F062CF809145
:1010B000B406882329F080910001815080930001BB
:1010C000E12CF12C1A828A810E940616813051F49B
:1010D00004E024E04CEA51E06CE370E0C7010E94B8
:1010E0002A120FC0823069F404E024E040EB51E0A2
:1010F0006CE370E0C7010E942A1261E08A810E94BD
:10110000C015FA81FF5FFA8324E0E20EF11CF03291
:10111000D1F680910C0290910D02892B09F494C0B4
:10112000822D90E0032D10E05B81452F50E05D8320
:101130004C836C0165E3C61AD108D7FE03C0D19475
:10114000C194D1085801AC81BD81AA1ABB0AB7FE6F
:1011500003C0B194A194B108AC14BD0464F4302F61
:10116000212F8C01832F922FEC80FD80E5E3F0E0AE
:10117000FD83EC8303C045E3E42EF12C2C813D81FB
:10118000021713075CF43E2D2F2D7C01832F922F25
:101190003C812D811D830C83032F122F18014C815C
:1011A0005D81241A350A2C014E185F0857FE03C0D2
:1011B000519441945108310137FE03C05FEF651A25
:1011C000750A75946794E816F90614F08FEF01C05C
:1011D00081E0882E880F99088C819D810817190756
:1011E000E4F021E0AC14BD041CF4AC01B70103C071
:1011F000A7016C817D8181E496E00E948F146418C0
:10120000750877FE04C0E80CF91C620C731CAC81F5
:10121000BD811196BD83AC83DFCFB981B11116C0FA
:1012200080910C0290910D02883C910518F0885C29
:10123000910902C080E090E090930D0280930C022F
:1012400081E08093050202C010920502E981E093DB
:10125000060280919A018F5F80939A0110924D0649
:1012600010924C0610924F0610924E068091070283
:1012700090910802288539852817390709F455C047
:101280004AE064E971E00E94B719A0910702B091A9
:1012900008026091AF017091B0012091AB013091D3
:1012A000AC014091AD015091AE018091030290914B
:1012B00004020EE110E0A617B70788F47093B0019E
:1012C0006093AF013093AC012093AB015093AE011A
:1012D0004093AD01909304028093030226C0203511
:1012E000310518F4F901FC9702C0E4E1F0E02E1B8F
:1012F0003F0BFA013196759728F0E4E1F0E0E41B2A
:10130000F50B02C0E1E0F0E04E0F5F1FFC013196EB
:101310007F9720F0F801E81BF90B02C0E1E0F0E054
:101320008E0F9F1F6C507E4FC6CF84E991E00E94C4
:101330006D1381E496E00E947F148FB7F89440917A
:101340001A0250911B0260911C0270911D028FBF06
:1013500080914906342F381B832F90914A06992398
:1013600029F030934B0610924A06C6C09091480669
:10137000391748F48F5F891708F0BEC081E083BF3A
:10138000889513BEB9C081E080934A064093490610
:10139000809144069091450601969093450680936E
:1013A0004406AAC00E946F1486FF41CBE0900A0257
:1013B000F0900B02A0EEEA16AEE2FA0608F037CB88
:1013C00080910502811133CB80910C0290910D0226
:1013D000892B09F02CCBC501089695958795959595
:1013E00087950E940616882309F421CB8091030279
:1013F000909104029701280F391F213E3E4220F0B0
:1014000080EE9EE28E199F09E80EF91EF0920B0203
:10141000E0920A02109209020ACB809171008D7F3E
:1014200080937100109210028DE296E090930F026B
:1014300080930E029093C1068093C00686E091E8E7
:1014400090932E0680932D068EE190E090933006C7
:1014500080932F0628E831E030933206209331063E
:1014600090933406809333062BE032E030933606B7
:101470002093350690933806809337060E94BC135C
:101480001DCB2136E9E03E071CF08C599F4FBCCBA9
:10149000293E33401CF08C509E4FB6CB88519C4F58
:1014A000B3CB85300CF0BCCBE8E0F0E0FD83EC83FF
:1014B00003C00E943916B4CB0E9439162C813D819D
:1014C000215031093D832C83232BB1F780910702F2
:1014D00090910802E3EBF1E02481222311F01482C1
:1014E000C296359643E052E04E175F07A9F79093F6
:1014F00008028093070294CB2F960FB6F894DEBFB4
:101500000FBECDBFDF91CF911F910F91FF90EF9054
:10151000DF90CF90BF90AF909F908F907F906F9013
:101520005F904F903F902F9008950E946F1483FF1B
:101530006CC08BE494E0909302018093010188ECED
:1015400090E090930B0280930A0210920D02109289
:101550000C02109205028FEF9FEF9093BF068093CD
:10156000BE069093BD068093BC061092B3061092FF
:10157000B2061092B1061092B0068CE291E0909300
:10158000AC018093AB0188E090E09093AE01809332
:10159000AD0110920802109207028AEF90E090933A
:1015A000B0018093AF018AE090E0909304028093B1
:1015B000030266E571E084E991E00E94A41A80E0EC
:1015C00090E025E0289FF001299FF00D1124ED54B3
:1015D000FE4FDF01322F1D923A95E9F701968031D7
:1015E000910581F7A4EBB6E0EBE9F1E08BEA91E03D
:1015F0001D921082118232968E179F07C9F76CE2F6
:1016000071E080E090E00C9413100E946F1487FF4B
:1016100005C00E946F1482FD0C947B1608950F93F1
:101620001F93CF93DF930E941F1310924F061092C7
:101630004E0610924D0610924C06C0E0D0E004E039
:1016400024E04CEA51E06CE370E0CE010E942A12E3
:101650002496C038D10599F709E128E34CEC50E015
:1016600064E070E084E090E00E942A1208E028E044
:101670004CEB50E064E370E084E190E00E942A12B9
:10168000CCE3D0E00CE310E020E0A801BE0181E44F
:1016900096E00E948F140F5F1F4F00341105A1F7D1
:1016A0002196C034D10571F708E028E044EB50E002
:1016B0006CE170E08AE390E00E942A1204E024E0EA
:1016C0004CEA51E064E270E08CE390E00E942A1260
:1016D000CBE4D0E0D0934D06C0934C0680E190E07F
:1016E00090934F0680934E0688E591E00E946D131B
:1016F000D0934D06C0934C068EE190E090934F0638
:1017000080934E0681E691E00E946D138EE490E096
:1017100090934D0680934C0688E290E090934F069C
:1017200080934E06609118027091190280E090E05B
:101730004AE00E942C1381E496E00E947F1485E920
:101740009AE090930201809301016CE271E080E0E5
:1017500090E0DF91CF911F910F910C9413100E9494
:101760006F1483FD0C940F0B0895CF92DF92EF92CC
:10177000FF920F931F93CF93DF936C017A018B013C
:10178000C0E0D0E0CE15DF0581F0D8016D918D016C
:10179000D601ED91FC910190F081E02DC6010995F3
:1017A000892B11F02196EECF7E01C701DF91CF91F9
:1017B0001F910F91FF90EF90DF90CF9008950E94BE
:1017C0009F1A1F920F920FB60F9211242F933F93DF
:1017D0004F935F936F937F938F939F93AF93BF9339
:1017E000EF93FF938091130290911402A091150240
:1017F000B0911602892B8A2B8B2B81F180911202DA
:1018000081110BC098B180E4892788B980911102B9
:10181000882319F088B1805888B98091130290917B
:101820001402A0911502B0911602181619061A0694
:101830001B06B4F48091130290911402A09115023A
:10184000B09116020197A109B109809313029093F8
:101850001402A0931502B093160202C00E94BC139A
:10186000FF91EF91BF91AF919F918F917F916F9178
:101870005F914F913F912F910F900FBE0F901F904E
:10188000189580911002E0910E02F0910F028823CA
:1018900049F0CF01029690930F0280930E0285913A
:1018A00094910895CF01029690930F0280930E02B7
:1018B000808191810895FC018485958597FD0BC0F9
:1018C0009FB7F89482E08093E9008091F2009FBF77
:1018D00090E0019608959FB7F89482E08093E90024
:1018E0008091F2009FBF90E00895409126025091B0
:1018F0002702209124023091250242175307B4F4A5
:101900009091E8009570E1F39091E80092FD19C084
:101910008093F100809126029091270201968F73A7
:101920009927892B19F48EEF8093E8008091260285
:10193000909127020196909327028093260281E0DE
:10194000089580E00895DF92EF92FF920F931F9326
:10195000CF93DF93D82EF92EE42E062F10E0C80186
:101960000196880F0E94750C83E00E94750CCD2DA6
:10197000DF2D0C0F1D1FC017D10789F0E7FE03C034
:10198000FE01849101C088810E94750CF82E80E0D0
:101990000E94750C8F2121968111EDCF01C081E04D
:1019A000DF91CF911F910F91FF90EF90DF900895FD
:1019B000DF92EF92FF920F931F93CF93DF93D82E76
:1019C0008A017B01E40EF51EEB01CE15DF0571F0F7
:1019D000D7FE03C0FE01849101C088810E94750C6E
:1019E00021968111F2CF8FEF9FEF01C0C801DF91E7
:1019F000CF911F910F91FF90EF90DF90089561506C
:101A000030F02091F100FC0120830196F8CF289856
:101A100084E680932B0208953FB7F89480912002CA
:101A200090912102A0912202B091230226B5A89B99
:101A300005C02F3F19F00196A11DB11D3FBFBA2F60
:101A4000A92F982F8827820F911DA11DB11DBC01C0
:101A5000CD0142E0660F771F881F991F4A95D1F785
:101A600008950F931F93CF93DF931F92CDB7DEB7E7
:101A700082E0898342E450E06BEC72E080E80E94EF
:101A8000D80C0E94A013DC0112960D911C911397A3
:101A90000115110589F0D801ED91FC910280F381C7
:101AA000E02DBE016F5F7F4FC801099597FD04C00F
:101AB000F80100851185ECCF89810F90DF91CF91DE
:101AC0001F910F9108951F920F920FB60F9211243C
:101AD0008F939F938091E1009091E100937F909389
:101AE000E10083FF0FC01092E90091E09093EB00BA
:101AF0001092EC0092E39093ED0010922C0298E08B
:101B00009093F00082FF20C093E09093E9009091C1
:101B1000F200992319F09AE39093E800909129023A
:101B2000992339F090912902915090932902992399
:101B300089F190912B02992339F090912B029150C9
:101B400090932B02992341F184FF10C08091E20011
:101B50008E7E81608093E2008091E1008F7E809391
:101B6000E10080912A028E7E806111C080FF16C044
:101B70008091E2008E7E80618093E2008091E1009E
:101B80008E7E8093E10080912A028E7E8160809318
:101B90002A0204C05D9ACDCF289AD6CF9F918F910B
:101BA0000F900FBE0F901F9018951F920F920FB6B7
:101BB0000F921124CF92DF92EF92FF920F931F9317
:101BC0002F933F934F935F936F937F938F939F9345
:101BD000AF93BF93EF93FF93CF93DF93CDB7DEB770
:101BE0006C97DEBFCDBF1092E9008091E80083FFC3
:101BF000FBC168E0CE0145960E94FF0C82EF809306
:101C0000E8008D8987FF05C09091E80090FFFCCF28
:101C100003C09EEF9093E800982F907609F0C6C01D
:101C20009E894F89588D2F89F88C91110CC080386E
:101C300029F480911E028093F10002C01092F100FD
:101C40001092F10045C1913051F4811141C14130F0
:101C5000510509F03DC180911E028D7F0BC093306C
:101C600061F4811135C14130510509F031C18091D4
:101C70001E02826080931E022BC1953049F4809130
:101C8000E80080FFFCCF822F80688093E30020C1B2
:101C9000963009F05EC00B8D1C8D22E01092E90099
:101CA0001092270210922602F21232C010922502E0
:101CB000109224020E94310D99E0BE016F5F7F4FA8
:101CC000DB01E92F1D92EA95E9F79983FA8291E009
:101CD0009E8390EA98879AEF998720912602309107
:101CE0002702275F3F4F3C832B838D831092E900AF
:101CF00010922702109226021093250200932402CC
:101D000049E050E080E00E94D80C0E94310DE0C014
:101D100010932502009324020E94A013DC01129666
:101D20000D911C9113970115110509F4BBC0D80141
:101D3000ED91FC910480F581E02DBE016B5E7F4F3B
:101D4000C8010995009709F0C7C0F8010085118501
:101D5000EACF973009F445C1983021F481E08093AF
:101D6000F100B6C0993009F0B3C0837009F039C1F1
:101D7000E4E1F1E081E031E096E32081211109C046
:101D80008EE78093EA001092EA008F8980932C02FC
:101D90009FC08093E9003093EB0021912093EC00E9
:101DA0009093ED008F5F873041F7EACF8B8D9C8D4C
:101DB0001092E900109227021092260290932502B9
:101DC00080932402898D811153C08E899D89913A17
:101DD00049F4813209F005C147E050E067E071E065
:101DE00080E0BBC0913209F0FCC0833269F48F8976
:101DF000988DA0E0B0E08093030190930401A0933C
:101E00000501B093060164C0803269F48091E80056
:101E100082FFFCCF67E087E091E00E94FF0C8BEF30
:101E20008093E80055C0823209F052C08F898093B8
:101E30000E01EEEFFFE7859194918B3F9C4D19F0D9
:101E4000E0E0F8E002C0EEEFFAE080910701909147
:101E50000801A0910901B0910A01803B9440A105BD
:101E6000B10509F09EC080910E0180FF79C099C034
:101E70000E94A013FC01028113810115110509F4D0
:101E8000B0C0D801ED91FC910190F081E02DBE0130
:101E90006B5E7F4FC801099581111AC0F80100855A
:101EA0001185EBCFF1E0FF1609F44EC0F3E0FF120D
:101EB00098C08F89882309F44AC0823089F440E8A9
:101EC00067E08FE293E00E94A30C882309F489C0A5
:101ED0008EEF8093E80088C018161906CCF381C0F5
:101EE000813029F440E86BE083E293E0ECCF83306B
:101EF00009F077C00E94A013DC011296ED90FC90CF
:101F000013978E010F5F1F4F6801E114F10479F000
:101F1000D701ED91FC910680F781E02DB801C70152
:101F20000995080F111DF701E084F184EECFD80167
:101F30001C92F60101900020E9F73197BF016C195E
:101F40007D0940E0C601BFCF61E173E002C06DE0F2
:101F500073E0FB01449150E080E80E94D80CB8CFB8
:101F6000EE3F2AE0F20751F0808191818737A7E7A1
:101F70009A0721F09093FF0A8093FE0A87E797E77C
:101F80009183808380916000809328029BE088E1A8
:101F90000FB6F894A895809360000FBE90936000F0
:101FA00097CF808191818737974709F091CFA89586
:101FB0008091600088618093600080912802809306
:101FC0006000EE3FBAE0FB0739F08091FE0A909185
:101FD000FF0A918380837CCF1092FF0A1092FE0A41
:101FE00077CF81E28093EB006C960FB6F894DEBF5A
:101FF0000FBECDBFDF91CF91FF91EF91BF91AF9118
:102000009F918F917F916F915F914F913F912F9110
:102010001F910F91FF90EF90DF90CF900F900FBE28
:102020000F901F9018958F929F92AF92BF92CF9270
:10203000DF92EF92FF926B017C010E940C0D4B012D
:102040005C01C114D104E104F104F1F00E940C0D13
:10205000DC01CB0188199909AA09BB09883E934084
:10206000A105B10570F321E0C21AD108E108F10819
:1020700088EE880E83E0981EA11CB11CC114D10407
:10208000E104F10419F7DDCFFF90EF90DF90CF90DE
:10209000BF90AF909F908F9008951F920F920FB6B0
:1020A0000F9211242F933F938F939F93AF93BF93DE
:1020B00080911A0290911B02A0911C02B0911D0206
:1020C00030911F0223E0230F2D3720F40196A11D2C
:1020D000B11D05C026E8230F0296A11DB11D209356
:1020E0001F0280931A0290931B02A0931C02B093CC
:1020F0001D028091200290912102A0912202B091B4
:1021000023020196A11DB11D80932002909321020C
:10211000A0932202B0932302BF91AF919F918F9120
:102120003F912F910F900FBE0F901F9018959C011B
:102130002D593F4F233E310568F5FC0197FF02C042
:10214000E0E0F0E08C599F4F8138910514F080E871
:1021500090E08E1B9B012770332791E001C0990FFF
:102160002A95EAF777FF02C0695F7F4F23E07595F4
:1021700067952A95E1F77695762F66277795679587
:10218000E60FF71FE35DFD4F815020F02081292BE2
:102190002193FACF089520912C02211103C08FEFD3
:1021A0009FEF08955FB7F89422E02093E900209113
:1021B000F20030E01216130614F421E030E0422F52
:1021C000FC0184E6415038F0289880932B029091CE
:1021D000F1009193F7CF2115310521F08091F200A4
:1021E000882319F05FBFC90108958BE68093E8004A
:1021F000F9CF2FB7F89483E08093E9009091E8003D
:10220000892F807295FF04C09091F20080E4891BB1
:102210002FBF0895CF93DF931F92CDB7DEB76983A9
:10222000DC01ED91FC910280F381E02D41E050E072
:10223000BE016F5F7F4F09950F90DF91CF91089599
:1022400083E08093E9008091F200882319F08AE30B
:102250008093E80008950E94F91090E00895CF93CC
:10226000DF931F92CDB7DEB7FC018485958597FD7E
:1022700005C02FEF3FEF358724870BC0CE010196B5
:102280000E94CB10019719F4898190E002C08FEF72
:102290009FEF0F90DF91CF9108950F931F93CF93EE
:1022A000DF931F92CDB7DEB78C01FC018485958545
:1022B00097FF0EC0CE0101960E94CB10019719F432
:1022C000898190E002C08FEF9FEFF80195878487A6
:1022D000F801848595850F90DF91CF911F910F9123
:1022E0000895009769F0FC0101900020E9F731970B
:1022F000AF01481B590BBC018DE396E00C94B50B64
:1023000080E090E008958F929F92AF92BF92CF921B
:10231000DF92EF92FF920F931F93CF93DF936C01A5
:102320007B018A0180910E01882309F45CC08091B1
:102330002C02882309F457C080912A0280FF05C02F
:102340008091E00082608093E000E801B12C8AEF88
:10235000A82E93E0892E2AE3922E209711F4BB2019
:10236000D9F10E94F91081110AC0AA94AA20D9F1CA
:1023700061E070E080E090E00E941310EECF282F23
:1023800030E0C217D3070CF48C2F9FB7F8948092DB
:10239000E9002091E80025FF1DC0282F30E0C21B76
:1023A000D30BF701815020F041914093F100FACF17
:1023B000E20EF31EBB2019F09092E8000AC0809153
:1023C000E80085FD07C09092E800BB24B3942097F5
:1023D00009F0B12C9FBFC1CF5D9884E6809329029C
:1023E0001016110644F081E090E0F6019383828399
:1023F00080E090E001C0C801DF91CF911F910F9163
:10240000FF90EF90DF90CF90BF90AF909F908F9014
:1024100008951F93CF93DF93EC01188180E190E042
:102420000E94EC19181729F0612F80E190E00E94BA
:10243000F419198181E190E00E94EC19181729F034
:10244000612F81E190E00E94F419CE01DF91CF91DC
:102450001F9108952F923F924F925F926F927F92B9
:102460008F929F92AF92BF92CF92DF92EF92FF92A4
:102470000F931F93CF93DF93CDB7DEB72A970FB695
:10248000F894DEBF0FBECDBF5A01822E912C94016D
:10249000280F391F37FDBAC0803891050CF0B6C03F
:1024A0009B01200F311D37FDB1C0603471050CF068
:1024B000ADC0AB0177FF04C044275527461B570B1F
:1024C000477055279B0177FF02C0295F3F4FE3E02C
:1024D00035952795EA95E1F777FF08C02150310936
:1024E00068E070E0FB01E41BF50BAF01202E2694A1
:1024F00026942694312C077019F0FFEF2F1A3F0A0B
:10250000220E331E39017694762C662477946794D4
:10251000680E791EE12CF12C00E010E0B301605848
:102520007F4F7A87698768E070E0FB01E41BF50B59
:10253000FA83E9832216330609F468C0283031058E
:1025400009F464C02F3FFFEF3F070CF454C0E98546
:10255000FA85E00FF11FBF01635D7D4F7C836B83C4
:10256000D801A60DB71DA35DBD4F6C0160E070E002
:10257000681579050CF03FC0E0E8CE16D10409F4E7
:102580003AC0D7FC2CC02F3FFFEF3F0709F43AC0F9
:10259000FB01EE0DFF1DEA0DFB1DE491042E01C0B1
:1025A000EE0F0A94EAF7FC91EF2BEC9341155105DD
:1025B000B1F02730310599F0FB01EE0DFF1DEA0D5A
:1025C000FB1DE4914E2E512C098002C05594479476
:1025D0000A94E2F7EB81FC815080452840826F5FCE
:1025E0007F4FEB81FC813196FC83EB83FFEFCF1AA9
:1025F000DF0A1196BDCF2F5F3F4F00581F4FE80CE9
:10260000F91C98CF41155105B9F6E9CF2A960FB6B6
:10261000F894DEBF0FBECDBFDF91CF911F910F9118
:10262000FF90EF90DF90CF90BF90AF909F908F90F2
:102630007F906F905F904F903F902F90089580E033
:10264000EDE2F2E081118FEF002481938193819379
:1026500081930394D1F708958F929F92AF92BF9286
:102660000F931F93CF93DF93CDB7DEB7A1970FB62C
:10267000F894DEBF0FBECDBF19A2423008F44AE085
:102680008E010F5D1F4F842E912CA12CB12CA50122
:1026900094010E94341AE62FB901CA0101501109B0
:1026A000EA3014F4E05D01C0E95CD801EC93232B1F
:1026B000242B252B61F7C8010E947111A1960FB63A
:1026C000F894DEBF0FBECDBFDF91CF911F910F9168
:1026D000BF90AF909F908F9008950C9471110F93BD
:1026E0001F93CF93DF93EC0166E070E00E94971098
:1026F0006DE370E0CE010E94971006E010E021E04B
:10270000A801BE0181E496E00E948F140F5F1F4F65
:102710000E331105A1F7CD59DF4F06E010E021E09F
:10272000A801BE0181E496E00E948F140F5F1F4F45
:102730000E331105A1F7DF91CF911F910F910895ED
:102740008091580681110DC082E08093540684E088
:1027500080935506109257061092560681E080939A
:10276000580684E596E0089580911702089508952B
:10277000089580E090E00895CF92DF92EF92FF926B
:102780000F931F93CF93DF930E94410C811520E894
:10279000920761F4809171008D7F80937100109297
:1027A0009100469847981092C4068BC021E0209370
:1027B000C406813020E8920751F48091C0069091C0
:1027C000C10690930F0280930E020E94410C97FD68
:1027D00005C02091C306222309F43FC02091C20600
:1027E00021113BC021E020931102EC01DF772097FB
:1027F00069F481E08093120246983FE9C32E3FE0DE
:10280000D32EE12CF12CCAEFD0E014C08E0120E0D1
:1028100030E060E472E48FE090E0A90198010E944A
:10282000021A69017A0181E0C81AD108E108F108A9
:1028300010921202E0913B06F0913C06099581113D
:1028400003C081E080931202809111028823B9F1C4
:1028500080911202811133C003C010921102C5CFC2
:1028600046992DC0479A0E94410C009771F09C0137
:10287000DE010E94561ADC01CB0129E0B595A7952F
:10288000979587952A95D1F703C08FEF9FEFDC01CD
:10289000109290002AE020939100D0929900C0926B
:1028A00098008093130290931402A0931502B093A2
:1028B00016028091710082608093710002C0479877
:1028C000D2CFDF91CF911F910F91FF90EF90DF90CA
:1028D000CF900895BC0180E090E00C9413108FB16C
:1028E0008095807F669B88601C9B846008958EBD68
:1028F00000000DB407FEFDCF08950C94EC19EDE235
:10290000F2E080E0A0E0B8E000800EBC8111012C74
:102910001197A0FDFDCF0192B9F70DB4089560386D
:102920007105D0F440345105B8F4E7E3F3E080E1F9
:10293000849FD001A0781124A60F4770E40FF11DE9
:102940008491A35DBD4F222319F06C91862B03C0A7
:1029500080956C9186238C9308952F923F924F928D
:102960005F926F927F928F929F92AF92BF92CF921F
:10297000DF92EF92FF920F931F93CF93DF93CDB728
:10298000DEB729970FB6F894DEBF0FBECDBF9A838E
:1029900089836A30A1F4DC0155962C9155975196A4
:1029A0008D919C915297B8E02B9F800D911D112421
:1029B000E981FA81928B818B108A1786B6C06D30BF
:1029C00009F4B3C029813A8139872887D9011F9634
:1029D0000D911C91509700381105BCF0E885F985E0
:1029E0002589422F50E087859089F6E02F9F800D42
:1029F000911D1124A885B98550969C938E931F979D
:102A000056962C9121117BC090C0E885F9852188CC
:102A10003288F0E42F1631040CF7A885B985559655
:102A2000FC90C801B5E0FB9E800D911D1124181685
:102A30001906A4F6EF2DF0E0FD83EC83C101F8E068
:102A4000FF9E800D911D1124181619063CF6A885CD
:102A5000B98554964C9054975396BC91BB83E5E04E
:102A60006E9FB00111249B01215C3C4F3A83298366
:102A7000E12C8885998504969F838E83E981FA816C
:102A80007490F5E0EF1201C0712C510188E0682EBE
:102A900070FE02C05B8001C0542C511003C02B811A
:102AA0004216C9F068018C2D801B8F15A0F44501DA
:102AB000882D8A198F1558F4252DA401B6018E8111
:102AC0009F810E948F143FEF831A930AF1CF8FEFFB
:102AD000C81AD80AE8CF76946A94AC81BD81AA0E50
:102AE000BB1E6110D5CFE3940A0F1B1FE981FA8149
:102AF0003196FA83E983F6E0EF12C0CF6FCF6AEF29
:102B000064039001659F300D112420583F4F281712
:102B100039075CF4A885B985ED91FC911197019076
:102B2000F081E02D6AE0CD01099581E090E02996E1
:102B30000FB6F894DEBF0FBECDBFDF91CF911F91CE
:102B40000F91FF90EF90DF90CF90BF90AF909F904C
:102B50008F907F906F905F904F903F902F9008954F
:102B60009C0150E0CB01841B950B2817390730F0EE
:102B7000460F571F81E04217530708F480E008957D
:102B8000803118F190E00F9721E030E0A90102C0F8
:102B9000440F551F8A95E2F7CA01662359F0209128
:102BA000B2063091B306822793279093B3068093A1
:102BB000B20608952091BE063091BF068227932762
:102BC0009093BF068093BE06089521E030E0A901EE
:102BD00002C0440F551F8A95E2F7CA01662359F0D7
:102BE0002091B0063091B106822793279093B106C9
:102BF0008093B00608952091BC063091BD068227CF
:102C000093279093BD068093BC060895803198F079
:102C100090E00F972091BE063091BF06082E02C0AB
:102C2000369527950A94E2F720FD1FC02091B20641
:102C30003091B30610C02091BC063091BD06082E1D
:102C400002C0369527950A94E2F720FD0EC0209128
:102C5000B0063091B106A90102C0569547958A95F4
:102C6000E2F740FF04C082E0089581E0089580E02B
:102C70000895CF92DF92EF92FF92CF938091BE069C
:102C80009091BF06019631F48091BC069091BD06EB
:102C9000019659F18FE1C82ED12CE12CF12C0E9424
:102CA0006019A70196010E94021A862FC62F0E9462
:102CB00006168111F4CF21E02C0FE4EBF6E080E062
:102CC00090E0622F022E000C770B4191411105C05C
:102CD000FC01EC54F94F208308C050E04617570719
:102CE00021F001968830910581F7CF91FF90EF9008
:102CF000DF90CF900895EF92FF920F931F93CF93A1
:102D0000DF9300D0CDB7DEB70E941F1310924F069D
:102D100010924E0610924D0610924C060CE010E0F8
:102D200086E0E82EF12C20E0A701B80181E496E0CE
:102D30000E948F148FEFE81AF80A8EE3E816F10468
:102D400091F70F5F1F4F0037110551F78CE090E0AE
:102D50000E946F130EE010E010934D0600934C0696
:102D600088E090E090934F0680934E068BE691E0CA
:102D70000E946D1310934D0600934C0680E190E085
:102D800090934F0680934E068BE791E00E946D135F
:102D90008DE290E090934D0680934C0682E390E0A4
:102DA00090934F0680934E0688E891E00E946D1341
:102DB00062E082E190E00E94F4191A821982CE0149
:102DC00001960E94091281E496E00E947F146CE251
:102DD00071E080E090E00E9413108FEA9BE09093F6
:102DE0000201809301010F900F90DF91CF911F910D
:102DF0000F91FF90EF900895789484B5826084BD20
:102E000084B5816084BD85B5826085BD85B58160EE
:102E100085BD80916E00816080936E00109281006C
:102E20008091810082608093810080918100816027
:102E300080938100809180008160809380008091E8
:102E400091008260809391008091910081608093D5
:102E50009100809190008160809390008091C100EA
:102E600084608093C1008091C10082608093C10022
:102E70008091C10081608093C1008091C300816016
:102E80008093C3008091C00082608093C0008091D5
:102E9000C20081608093C20080917A008460809338
:102EA0007A0080917A00826080937A0080917A0023
:102EB000816080937A0080917A00806880937A00A4
:102EC00010922C0210921E0210922A028091D700BA
:102ED00081608093D70080EA8093D80089B58061B3
:102EE00089BD89B5826089BD09B400FEFDCF61E06E
:102EF00070E080E090E00E9413108091D8008F7CF9
:102F000080618093D8008091E000807F8093E00012
:102F10008091E1008E7E8093E1008DE08093E2005D
:102F2000559A209A81EC80937C0085B1806F85B999
:102F300084B1877E84B984B1876E84B95E9A5F98C4
:102F40008AB1806D8AB9769A6E9881B3806F81BBA1
:102F5000899880B38D7080BB80E58CBD81E08DBD8C
:102F600085E090E00E946A145F9A85E090E00E94FC
:102F70006A145E985C98C4EBD1E0FE0184910E94D3
:102F800077142196F1E0C13CDF07B9F75C9A81E83C
:102F90008093640080916500816080936500C0E04B
:102FA000D4E080E00E9477142197D9F70E946F1433
:102FB00087FF21C05C9885EA0E9477145C9A2E985E
:102FC0002F982D988091640080628093640081E046
:102FD00083BF889513BEFCCF2D980E946F14847810
:102FE000843871F00E946F148471843129F188EC67
:102FF00090E00E946A140E946F1482FDEDCF38C0E9
:103000002D9A88EC90E00E946A142F9882E090E05C
:103010000E94EC198F3F29F06FEF82E090E00E9450
:10302000F41984EF91E00E946A142F9A0E946F14A1
:1030300084788438D9F3D6CF2D9A88EC90E00E941A
:103040006A142E9882E090E00E94EC19882329F0FF
:1030500060E082E090E00E94F41984EF91E00E9429
:103060006A142E9A0E946F1484718431D9F3BFCFF1
:103070002D9A82E090E00E947D14882331F03E9AE0
:103080003F9A81E08093170204C0109217023E9885
:103090003F980E941F1310924F0610924E061092F6
:1030A0004D0610924C0603E120E741EC51E068E147
:1030B00070E08CE090E00E942A1281E496E00E9489
:1030C0007F1460ED77E080E090E00E94131082E3CF
:1030D00090E00E946A140E946F148111F8CF82E17F
:1030E00090E00E947D14823089F480E190E00E949B
:1030F000EC198093180281E190E00E94EC19809312
:1031000019020E940F0BC0E0D0E005C00E947B16A0
:10311000FACF0E940000E0910101F09102010995AF
:103120002097C9F3F6CFE0E6F6E01382128288EE2C
:1031300093E0A0E0B0E084839583A683B7838EE11B
:1031400091E0918380838FEF9FEF95878487EDE3F4
:10315000F6E0138212821186128680E18387108640
:103160001782158680E391E0918380838EE391E05E
:1031700095838483108A1786128A118A81E0838B53
:10318000148A858B168A84EB93E190933C06809396
:103190003B0680E090E890933A0680933906469883
:1031A0003E9A47983F9A08950F931F93CF93DF93CA
:1031B000EC0181E090E00E947D1480FF2EC08AE047
:1031C00090E00E947D149FEF980F9E3F30F522E320
:1031D00030E0388B2F8728E330E03A8B298B0BE0E7
:1031E00010E0E881F9810190F081E02D682FCE0197
:1031F0000995C8010E947D140F5F1F4F0131110511
:1032000081F7CE0104960E947F1488EE93E0DF914F
:10321000CF911F910F910C946A14DF91CF911F9160
:103220000F91089504970C94D4188F929F92AF92A7
:10323000BF92CF92DF92EF92FF92CF93DF93EC0198
:10324000688179818A819B8161157105810591056C
:1032500021F464E279ED8BE597E02DE133EF41E075
:1032600050E00E94021A49015A019B01AC01A7EAF1
:10327000B1E40E94211A6B017C01ACEEB4EFA50110
:1032800094010E942F1ADC01CB018C0D9D1DAE1DF7
:10329000BF1DB7FF03C00197A109B0488883998378
:1032A000AA83BB83BC01CD019F77DF91CF91FF90B3
:1032B000EF90DF90CF90BF90AF909F908F90089548
:1032C0008F929F92AF92BF92CF92DF92EF92FF9236
:1032D00060910F0170911001809111019091120184
:1032E000611571058105910521F464E279ED8BE5A5
:1032F00097E02DE133EF41E050E00E94021A4901CE
:103300005A019B01AC01A7EAB1E40E94211A6B01AA
:103310007C01ACEEB4EFA50194010E942F1ADC01F0
:10332000CB018C0D9D1DAE1DBF1DB7FF03C00197C6
:10333000A109B04880930F0190931001A09311014F
:10334000B0931201BC01CD019F77FF90EF90DF9009
:10335000CF90BF90AF909F908F90089560930F0192
:103360007093100180931101909312010895BB276F
:103370004A3031F4992322F4BDE2909581959F4F14
:103380000C94C319BB27FB015527AA27880F991F47
:10339000AA1FA41710F0A41B83955051B9F7A05D84
:1033A000AA3308F0A95DA193009779F7B111B19301
:1033B0001192CB010C94DC19DC01FC01672F719197
:1033C0007723E1F7329704C07C916D93708362910B
:1033D000AE17BF07C8F30895F999FECF92BD81BD1E
:1033E000F89A992780B50895262FF999FECF1FBA2C
:1033F00092BD81BD20BD0FB6F894FA9AF99A0FBE1E
:1034000001960895052E97FB1EF400940E94191A48
:1034100057FD07D00E94341A07FC03D04EF40C94D9
:10342000191A50954095309521953F4F4F4F5F4F5A
:10343000089590958095709561957F4F8F4F9F4F20
:1034400008950E94561AA59F900DB49F900DA49FB9
:10345000800D911D11240895B7FF0C94211A0E942C
:10346000211A821B930B0895A1E21A2EAA1BBB1BE3
:10347000FD010DC0AA1FBB1FEE1FFF1FA217B30740
:10348000E407F50720F0A21BB30BE40BF50B661F56
:10349000771F881F991F1A9469F76095709580951A
:1034A00090959B01AC01BD01CF010895A29FB00191
:1034B000B39FC001A39F700D811D1124911DB29F68
:1034C000700D811D1124911D0895991B79E004C090
:1034D000991F961708F0961B881F7A95C9F7809553
:1034E0000895AA1BBB1B51E107C0AA1FBB1FA6174B
:1034F000B70710F0A61BB70B881F991F5A95A9F79D
:1035000080959095BC01CD01089597FB072E16F488
:10351000009407D077FD09D00E94711A07FC05D0EE
:103520003EF4909581959F4F0895709561957F4FDA
:103530000895EE0FFF1F0590F491E02D099481E0AE
:1035400090E0F8940C94AB1AFB01DC0101900D9211
:0A3550000020E1F70895F894FFCF82
:10355A000F950AFFFFFFFF00E100000000000001D5
:10356A0000000000C18081000000000000000A1174
:10357A0083112B1120115B0C2F114D11000000003B
:10358A00AD14B50BB913B813D418FCFF0000121907
:10359A0047414D45204F564552004E45572052450A
:1035AA00434F524421003000507265737320412109
:1035BA000048492053434F52453A0041206E6577EF
:1035CA0020736176652066696C6500776173206394
:1035DA007265617465642E00507265737320412EA2
:0435EA002E2E000081
:00000001FF
